{
  "_format": "hh-sol-artifact-1",
  "contractName": "Lock",
  "sourceName": "contracts/Lock.sol",
  "abi": [
    {
      "inputs": [
        {
          "internalType": "uint256",
          "name": "_unlockTime",
          "type": "uint256"
        }
      ],
      "stateMutability": "payable",
      "type": "constructor"
    },
    {
      "anonymous": false,
      "inputs": [
        {
          "indexed": false,
          "internalType": "string",
          "name": "new_msg",
          "type": "string"
        }
      ],
      "name": "SetMessage",
      "type": "event"
    },
    {
      "anonymous": false,
      "inputs": [
        {
          "indexed": false,
          "internalType": "uint256",
          "name": "amount",
          "type": "uint256"
        },
        {
          "indexed": false,
          "internalType": "uint256",
          "name": "when",
          "type": "uint256"
        }
      ],
      "name": "Withdrawal",
      "type": "event"
    },
    {
      "inputs": [],
      "name": "message",
      "outputs": [
        {
          "internalType": "string",
          "name": "",
          "type": "string"
        }
      ],
      "stateMutability": "view",
      "type": "function"
    },
    {
      "inputs": [],
      "name": "owner",
      "outputs": [
        {
          "internalType": "address payable",
          "name": "",
          "type": "address"
        }
      ],
      "stateMutability": "view",
      "type": "function"
    },
    {
      "inputs": [
        {
          "internalType": "string",
          "name": "_msg",
          "type": "string"
        }
      ],
      "name": "setMessage",
      "outputs": [],
      "stateMutability": "nonpayable",
      "type": "function"
    },
    {
      "inputs": [],
      "name": "unlockTime",
      "outputs": [
        {
          "internalType": "uint256",
          "name": "",
          "type": "uint256"
        }
      ],
      "stateMutability": "view",
      "type": "function"
    },
    {
      "inputs": [],
      "name": "withdraw",
      "outputs": [],
      "stateMutability": "nonpayable",
      "type": "function"
    }
  ],
  "bytecode": "0x60806040526040518060400160405280600b81526020017f48656c6c6f20576f726c6400000000000000000000000000000000000000000081525060029081610048919061034a565b50604051610f6e380380610f6e833981810160405281019061006a919061044d565b8042106100ac576040517f08c379a00000000000000000000000000000000000000000000000000000000081526004016100a3906104fd565b60405180910390fd5b8060008190555033600160006101000a81548173ffffffffffffffffffffffffffffffffffffffff021916908373ffffffffffffffffffffffffffffffffffffffff1602179055505061051d565b600081519050919050565b7f4e487b7100000000000000000000000000000000000000000000000000000000600052604160045260246000fd5b7f4e487b7100000000000000000000000000000000000000000000000000000000600052602260045260246000fd5b6000600282049050600182168061017b57607f821691505b60208210810361018e5761018d610134565b5b50919050565b60008190508160005260206000209050919050565b60006020601f8301049050919050565b600082821b905092915050565b6000600883026101f67fffffffffffffffffffffffffffffffffffffffffffffffffffffffffffffffff826101b9565b61020086836101b9565b95508019841693508086168417925050509392505050565b6000819050919050565b6000819050919050565b600061024761024261023d84610218565b610222565b610218565b9050919050565b6000819050919050565b6102618361022c565b61027561026d8261024e565b8484546101c6565b825550505050565b600090565b61028a61027d565b610295818484610258565b505050565b5b818110156102b9576102ae600082610282565b60018101905061029b565b5050565b601f8211156102fe576102cf81610194565b6102d8846101a9565b810160208510156102e7578190505b6102fb6102f3856101a9565b83018261029a565b50505b505050565b600082821c905092915050565b600061032160001984600802610303565b1980831691505092915050565b600061033a8383610310565b9150826002028217905092915050565b610353826100fa565b67ffffffffffffffff81111561036c5761036b610105565b5b6103768254610163565b6103818282856102bd565b600060209050601f8311600181146103b457600084156103a2578287015190505b6103ac858261032e565b865550610414565b601f1984166103c286610194565b60005b828110156103ea578489015182556001820191506020850194506020810190506103c5565b868310156104075784890151610403601f891682610310565b8355505b6001600288020188555050505b505050505050565b600080fd5b61042a81610218565b811461043557600080fd5b50565b60008151905061044781610421565b92915050565b6000602082840312156104635761046261041c565b5b600061047184828501610438565b91505092915050565b600082825260208201905092915050565b7f556e6c6f636b2074696d652073686f756c6420626520696e207468652066757460008201527f7572650000000000000000000000000000000000000000000000000000000000602082015250565b60006104e760238361047a565b91506104f28261048b565b604082019050919050565b60006020820190508181036000830152610516816104da565b9050919050565b610a428061052c6000396000f3fe608060405234801561001057600080fd5b50600436106100575760003560e01c8063251c1aa31461005c578063368b87721461007a5780633ccfd60b146100965780638da5cb5b146100a0578063e21f37ce146100be575b600080fd5b6100646100dc565b6040516100719190610372565b60405180910390f35b610094600480360381019061008f91906104e7565b6100e2565b005b61009e61012c565b005b6100a86102a5565b6040516100b59190610571565b60405180910390f35b6100c66102cb565b6040516100d3919061060b565b60405180910390f35b60005481565b80600290816100f19190610839565b507f88fabb3a5fb12238a642b855bc1b1693ac0d6443ad7fc7c035e322c5b6cb587f81604051610121919061060b565b60405180910390a150565b600054421015610171576040517f08c379a000000000000000000000000000000000000000000000000000000000815260040161016890610957565b60405180910390fd5b600160009054906101000a900473ffffffffffffffffffffffffffffffffffffffff1673ffffffffffffffffffffffffffffffffffffffff163373ffffffffffffffffffffffffffffffffffffffff1614610201576040517f08c379a00000000000000000000000000000000000000000000000000000000081526004016101f8906109c3565b60405180910390fd5b7fbf2ed60bd5b5965d685680c01195c9514e4382e28e3a5a2d2d5244bf59411b9347426040516102329291906109e3565b60405180910390a1600160009054906101000a900473ffffffffffffffffffffffffffffffffffffffff1673ffffffffffffffffffffffffffffffffffffffff166108fc479081150290604051600060405180830381858888f193505050501580156102a2573d6000803e3d6000fd5b50565b600160009054906101000a900473ffffffffffffffffffffffffffffffffffffffff1681565b600280546102d89061065c565b80601f01602080910402602001604051908101604052809291908181526020018280546103049061065c565b80156103515780601f1061032657610100808354040283529160200191610351565b820191906000526020600020905b81548152906001019060200180831161033457829003601f168201915b505050505081565b6000819050919050565b61036c81610359565b82525050565b60006020820190506103876000830184610363565b92915050565b6000604051905090565b600080fd5b600080fd5b600080fd5b600080fd5b6000601f19601f8301169050919050565b7f4e487b7100000000000000000000000000000000000000000000000000000000600052604160045260246000fd5b6103f4826103ab565b810181811067ffffffffffffffff82111715610413576104126103bc565b5b80604052505050565b600061042661038d565b905061043282826103eb565b919050565b600067ffffffffffffffff821115610452576104516103bc565b5b61045b826103ab565b9050602081019050919050565b82818337600083830152505050565b600061048a61048584610437565b61041c565b9050828152602081018484840111156104a6576104a56103a6565b5b6104b1848285610468565b509392505050565b600082601f8301126104ce576104cd6103a1565b5b81356104de848260208601610477565b91505092915050565b6000602082840312156104fd576104fc610397565b5b600082013567ffffffffffffffff81111561051b5761051a61039c565b5b610527848285016104b9565b91505092915050565b600073ffffffffffffffffffffffffffffffffffffffff82169050919050565b600061055b82610530565b9050919050565b61056b81610550565b82525050565b60006020820190506105866000830184610562565b92915050565b600081519050919050565b600082825260208201905092915050565b60005b838110156105c65780820151818401526020810190506105ab565b60008484015250505050565b60006105dd8261058c565b6105e78185610597565b93506105f78185602086016105a8565b610600816103ab565b840191505092915050565b6000602082019050818103600083015261062581846105d2565b905092915050565b7f4e487b7100000000000000000000000000000000000000000000000000000000600052602260045260246000fd5b6000600282049050600182168061067457607f821691505b6020821081036106875761068661062d565b5b50919050565b60008190508160005260206000209050919050565b60006020601f8301049050919050565b600082821b905092915050565b6000600883026106ef7fffffffffffffffffffffffffffffffffffffffffffffffffffffffffffffffff826106b2565b6106f986836106b2565b95508019841693508086168417925050509392505050565b6000819050919050565b600061073661073161072c84610359565b610711565b610359565b9050919050565b6000819050919050565b6107508361071b565b61076461075c8261073d565b8484546106bf565b825550505050565b600090565b61077961076c565b610784818484610747565b505050565b5b818110156107a85761079d600082610771565b60018101905061078a565b5050565b601f8211156107ed576107be8161068d565b6107c7846106a2565b810160208510156107d6578190505b6107ea6107e2856106a2565b830182610789565b50505b505050565b600082821c905092915050565b6000610810600019846008026107f2565b1980831691505092915050565b600061082983836107ff565b9150826002028217905092915050565b6108428261058c565b67ffffffffffffffff81111561085b5761085a6103bc565b5b610865825461065c565b6108708282856107ac565b600060209050601f8311600181146108a35760008415610891578287015190505b61089b858261081d565b865550610903565b601f1984166108b18661068d565b60005b828110156108d9578489015182556001820191506020850194506020810190506108b4565b868310156108f657848901516108f2601f8916826107ff565b8355505b6001600288020188555050505b505050505050565b7f596f752063616e27742077697468647261772079657400000000000000000000600082015250565b6000610941601683610597565b915061094c8261090b565b602082019050919050565b6000602082019050818103600083015261097081610934565b9050919050565b7f596f75206172656e277420746865206f776e6572000000000000000000000000600082015250565b60006109ad601483610597565b91506109b882610977565b602082019050919050565b600060208201905081810360008301526109dc816109a0565b9050919050565b60006040820190506109f86000830185610363565b610a056020830184610363565b939250505056fea2646970667358221220b9548f20dd945fd23625ca331b1e5f2c00407188af4d2a8260a9e5694ec7166b64736f6c634300081c0033",
  "linkReferences": {},
  "deployedLinkReferences": {}
}